S015000050726F796563746F46696E616C2E73726563D0
S11300000C943B000C9450000C9450000C94500041
S11300100C9450000C9450000C9450000C9450001C
S11300200C9450000C9450000C9450000C9450000C
S11300300C9450000C9450000C9450000C945000FC
S11300400C9450000C9450000C9450000C945000EC
S11300500C9450000C9450000C9450000C945000DC
S11300600C9450000C945000DD04A604DF04A80492
S1130070AA04AC04B20411241FBECFEFD8E0DEBF43
S1130080CDBF11E0A0E0B1E0E6E8F4E102C00590E4
S11300900D92AA37B107D9F70E9450010C94410A76
S11300A00C940000ECE7F0E0808180648083EAE750
S11300B0F0E08081836880830895EAE7F0E080813E
S11300C0806480830895EAE7F0E08081806480831F
S11300D0808186FDFDCF809178009091790008950C
S11300E05A9A00C05A980895CF93C82F662311F0E6
S11300F0589A01C058985998549A559A569A579AAA
S11301005F985E985D985C98CC230CF45F9AC6FD6A
S11301105E9AC5FD5D9AC4FD5C9A0E9470005F986A
S11301205E985D985C98C3FD5F9AC2FD5E9AC1FDBE
S11301305D9AC0FD5C9A0E9470005C9A5D9A5E9A1A
S11301405F9ACF910895882311F0589A01C0589866
S1130150599A54985598569857985A9A00C04C9B57
S113016002C080E101C080E04D9980624E998064B4
S11301704F9980685A9800C05A9A00C04C9981607F
S11301804D9982604E9984604F9988605A98089579
S113019080E00E94A3008823DCF388E090E00197CC
S11301A0F1F780E00E94A3000895CF93C82F0E9426
S11301B0C80060E08C2F0E947400CF9108956111F3
S11301C004C080580E94D500089580540E94D50030
S11301D0089581E00E94D500089582E00E94D50030
S11301E00895CF93C82F0E94C800CA3049F48034C0
S11301F010F080E001C080E480580E94D50004C063
S113020061E08C2F0E947400CF910895CF93DF9307
S1130210EC012196FC018081882329F00E94F100E1
S113022089918111FBCFDF91CF9108951F93CF93D3
S1130230DF93182F509A519A529A549A559A569A73
S1130240579A80E09AEF0197F1F75D9A5C9A0E94C1
S1130250700080E09EE40197F1F70E947000C0E016
S1130260D1E0CE010197F1F70E947000CE01019711
S1130270F1F75C980E9470002197F1F788E20E94E0
S1130280D50088E00E94D5000E94E90086E00E9423
S1130290D500812F0E94D500DF91CF911F91089541
S11302A0CF93DF93CDB7DEB7A3970FB6F894DEBF35
S11302B00FBECDBF249A3C9A88B18E6188B98CE078
S11302C00E9416010E9452000E945D000E94ED00EF
S11302D080E290E0998788870E946300BC01990FAF
S11302E0880B990B0E94340620E030E84CEC53E470
S11302F00E94180520E030E044EC52EC0E94E40631
S113030020E030EC49E154E40E948A0520E030E02A
S113031044EC52E40E94190568A379A38AA39BA321
S1130320EE24E394F12C0F2EF6E4AF2EB12CF02D35
S113033020E230E03F8F2E8F64E170E07B8F6A8F84
S11303408FE190E09D8F8C8FE4E1F0E0F98FE88FEE
S1130350C12CD12C66246394312C8E01085F1F4F6D
S11303606894882485F8912C0E947404232E442ECA
S113037029833A834B835C836D837E838F83842FAD
S113038090E0422D50E0262D688D798D681779070D
S113039009F0232D222349F0262DEC8DFD8DE41741
S11303A0F50709F0232D21114498262D6A8D7B8DA4
S11303B06817790709F0232D222349F0862DEE8D45
S11303C0FF8DE417F50709F0832D8111449A8DEC14
S11303D0289E712C112476947694872D880F880F8B
S11303E0780EF22DF7197F2E562C09F0532C862DFA
S11303F0C114D10409F0832D882331F1552021F152
S11304000E946300BC01990F880B990B0E9434066B
S113041020E030E84CEC53E40E94180520E030E082
S113042044EC52EC0E94E40620E030EC49E154E450
S11304300E948A0520E030E044EC52E40E94190551
S113044068A379A38AA39BA3772011F0C12CD12C94
S1130450339908C02FEFE21AF20A35E0E316F104EB
S113046009F4E9C10E94ED0062E0E616F10409F422
S113047054C034F481E0E816F10409F0B1C10BC0B2
S113048093E0E916F10409F49CC0E4E0EE16F104EB
S113049009F420C1A5C1F801918280820E94E9007B
S11304A00E94ED0068A179A18AA19BA10E94FC058C
S11304B07F936F9320E031E03F932F931F930F932B
S11304C00E945707C8010E940601662D832D0E94D1
S11304D0DF00F801918280821F922F921F924F9227
S11304E023E131E03F932F931F930F930E9457070B
S11304F0C8010E9406017FEF84E39CE071508040B4
S11305009040E1F700C000000FB6F894DEBF0FBEC4
S1130510CDBFEE24E394F12C63C131990AC0FFEFFF
S1130520AF1ABF0A23E6A216B10419F4AA24A394AD
S1130530B12C329909C031E0A31AB10828F40F2E66
S1130540F2E6AF2EB12CF02DF801918280820E9448
S1130550E9000E94ED0068A179A18AA19BA10E94F3
S1130560FC057F936F9320E031E03F932F931F931B
S11305700F930E945707C8010E940601662D832D20
S11305800E94DF00F80191828082BF92AF9228E23C
S113059031E03F932F931F930F930E945707C80195
S11305A00E9406017FEF84E39CE0715080409040FC
S11305B0E1F700C000000FB6F894DEBF0FBECDBF58
S11305C00FC1319916C02C8D3D8D2F5F3F4F3D8F4C
S11305D02C8F2C33310569F4688D798D6F5F7F4FD3
S11305E0798F688F6831710509F028C1198E188ECA
S11305F025C132991DC08C8D9D8D01979D8F8C8F47
S11306000196B1F4288D398D21503109398F288F05
S11306102F3F3F4F49F48BE390E09D8F8C8FE7E1B0
S1130620F0E0F98FE88F04C02BE330E03D8F2C8F8E
S11306300E94E9000E94ED00F801918280821F92DD
S11306402F921F924F922BE331E03F932F931F93EE
S11306500F930E945707C8010E940601662D832D3F
S11306600E94DF00F80191828082FD8DFF932C8D22
S11306702F93398D3F93688D6F9380E591E09F931D
S11306808F931F930F930E945707C8010E9406017E
S1130690662D8AE00E94DF00F98DFF93288D2F9349
S11306A06FE571E07F936F931F930F930E94570739
S11306B0C8010E9406019FEFE4E3FCE09150E04092
S11306C0F040E1F700C000000FB6F894DEBF0FBEA3
S11306D0CDBF86C0319914C06E8D7F8D6F5F7F4F03
S11306E07F8F6E8F6C33710559F48A8D9B8D0196C3
S11306F09B8F8A8F489709F0A6C01B8E1A8EA3C0C1
S113070032991DC0EE8DFF8D3197FF8FEE8F31969C
S1130710B1F46A8D7B8D615071097B8F6A8F6F3F55
S11307207F4F49F4EBE3F0E0FF8FEE8F27E130E0F9
S11307303B8F2A8F04C06BE370E07F8F6E8F0E9423
S1130740E9000E94ED00F801918280821F922F92AD
S11307501F924F922BE331E03F932F931F930F93FC
S11307600E945707C8010E940601662D832D0E942E
S1130770DF00F80191828082FF8DFF932E8D2F93ED
S11307803B8D3F936A8D6F9384E691E09F938F93A3
S11307901F930F930E945707C8010E940601662DFC
S11307A08AE00E94DF00FB8DFF932A8D2F936FE573
S11307B071E07F936F931F930F930E945707C801B3
S11307C00E9406019FEFE4E3FCE09150E040F0401A
S11307D0E1F700C000000FB6F894DEBF0FBECDBF36
S11307E0B5010B2C000C880B990B0E9434069B015D
S11307F0AC0168A179A18AA19BA10E948505880FFB
S1130800880B8621B1F0862DC114D10409F0832D03
S1130810852179F02C9A3FEF63E274EF3150604008
S11308207040E1F700C000002C98CC24C394D12C74
S11308309BCD2C9899CD0E94ED002DCE329BE2CE1B
S11308401D8E1C8EF5CE329B64CF1F8E1E8E77CFED
S113085029982B982B9A089584B18B7F8A6084B948
S11308602A9820E030E080E061E070E0299892E08E
S11308709A95F1F700C01A9B08C0AB01022E02C082
S1130880440F551F0A94E2F7842B299A92E09A9513
S1130890F1F700C02F5F3F4F2830310539F7089535
S11308A094B19E6094B920E030E090E0299842E051
S11308B04A95F1F700C0AC01022E02C05595479548
S11308C00A94E2F740FD02C02A9801C02A9A000067
S11308D00000299A42E04A95F1F700C02F5F3F4F8C
S11308E02830310519F708958F929F92AF92BF92E5
S11308F0CF92DF92EF92FF920F931F93CF93DF93E8
S1130900CDB7DEB727970FB6F894DEBF0FBECDBFC5
S11309100E9428048FEB0E945004FF24F394B12C0E
S1130920C12CA12CD12C912C812C01C0F3940E94B8
S11309302C04E82EEFEFEF0D0E2F10E00730110519
S113094068F4F801EC5CFF4F0C945107982EEECF3D
S1130950A82EECCFC82EEACFB82EE8CF87E0F81245
S1130960E5CFE12C0E942804282D20772695269592
S11309702695822F880F880F280F882D8F70280FB7
S1130980392D3077369536953695832F880F880F15
S1130990380F892D8F70380FDD206CF04D2D40738A
S11309A0469546954695842F880F880F840F4D2DC4
S11309B04F70480F06C04D2D04C0882EB7CFD82ED7
S11309C0B5CF5A2D5073569556955695852F880F49
S11309D0880F580F8A2D8F70580FC4FA662760F954
S11309E0660F862F880F880F680F8C2D8F70680F05
S11309F08E2D82958F70880F982F990F990F980FCD
S1130A008E2D8F70890F7B2D90E027960FB6F8946A
S1130A10DEBF0FBECDBFDF91CF911F910F91FF902D
S1130A20EF90DF90CF90BF90AF909F908F900895FC
S1130A305058BB27AA270E9430050C94AA060E948E
S1130A409C0638F00E94A30620F039F49F3F19F465
S1130A5026F40C9499060EF4E095E7FB0C949306A7
S1130A60E92F0E94BB0658F3BA176207730784077D
S1130A70950720F079F4A6F50C94DD060EF4E095C4
S1130A800B2EBA2FA02D0B01B90190010C01CA0144
S1130A90A0011124FF27591B99F0593F50F4503EEF
S1130AA068F11A16F040A22F232F342F4427585FE1
S1130AB0F3CF469537952795A795F0405395C9F7F9
S1130AC07EF41F16BA0B620B730B840BBAF09150B1
S1130AD0A1F0FF0FBB1F661F771F881FC2F70EC050
S1130AE0BA0F621F731F841F48F487957795679523
S1130AF0B795F7959E3F08F0B0CF9395880F08F00F
S1130B009927EE0F9795879508950E946F0608F42C
S1130B1081E008950E949E050C94AA060E94A306F3
S1130B2058F00E949C0640F029F45F3F29F00C9491
S1130B30930651110C94DE060C9499060E94BB0690
S1130B4068F39923B1F3552391F3951B550BBB27F8
S1130B50AA2762177307840738F09F5F5F4F220F3D
S1130B60331F441FAA1FA9F335D00E2E3AF0E0E834
S1130B7032D091505040E695001CCAF72BD0FE2F7E
S1130B8029D0660F771F881FBB1F26173707480712
S1130B90AB07B0E809F0BB0B802DBF01FF279358CA
S1130BA05F4F3AF09E3F510578F00C9493060C94F5
S1130BB0DE065F3FE4F3983ED4F386957795679518
S1130BC0B795F7959F5FC9F7880F911D96958795FF
S1130BD097F90895E1E0660F771F881FBB1F62171E
S1130BE073078407BA0720F0621B730B840BBA0BDC
S1130BF0EE1F88F7E09508950E9403066894B111EA
S1130C000C94DE0608950E94C30688F09F5798F05E
S1130C10B92F9927B751B0F0E1F0660F771F881FFD
S1130C20991F1AF0BA95C9F714C0B13091F00E9417
S1130C30DD06B1E008950C94DD06672F782F882730
S1130C40B85F39F0B93FCCF3869577956795B3953E
S1130C50D9F73EF490958095709561957F4F8F4FAD
S1130C609F4F0895E89409C097FB3EF490958095B2
S1130C70709561957F4F8F4F9F4F9923A9F0F92F5E
S1130C8096E9BB279395F695879577956795B795DC
S1130C90F111F8CFFAF4BB0F11F460FF1BC06F5FC2
S1130CA07F4F8F4F9F4F16C0882311F096E911C0D4
S1130CB0772321F09EE8872F762F05C0662371F0F5
S1130CC096E8862F70E060E02AF09A95660F771F09
S1130CD0881FDAF7880F9695879597F90895990FE5
S1130CE00008550FAA0BE0E8FEEF16161706E807F2
S1130CF0F907C0F012161306E407F50798F0621B13
S1130D00730B840B950B39F40A2661F0232B242BE7
S1130D10252B21F408950A2609F4A140A6958FEF06
S1130D20811D811D089597F99F6780E870E060E058
S1130D3008959FEF80EC089500240A941616170670
S1130D4018060906089500240A94121613061406B8
S1130D5005060895092E0394000C11F4882352F01B
S1130D60BB0F40F4BF2B11F460FF04C06F5F7F4FD3
S1130D708F4F9F4F089557FD9058440F551F59F0BA
S1130D805F3F71F04795880F97FB991F61F09F3F74
S1130D9079F087950895121613061406551FF2CF9D
S1130DA04695F1DF08C0161617061806991FF1CFED
S1130DB086957105610508940895E894BB27662714
S1130DC07727CB0197F908950E94F7060C94AA0699
S1130DD00E949C0638F00E94A30620F0952311F08F
S1130DE00C9493060C94990611240C94DE060E942C
S1130DF0BB0670F3959FC1F3950F50E0551F629F9A
S1130E00F001729FBB27F00DB11D639FAA27F00D5F
S1130E10B11DAA1F649F6627B00DA11D661F829F86
S1130E202227B00DA11D621F739FB00DA11D621F6B
S1130E30839FA00D611D221F749F3327A00D611D88
S1130E40231F849F600D211D822F762F6A2F11246A
S1130E509F5750409AF0F1F088234AF0EE0FFF1F9D
S1130E60BB1F661F771F881F91505040A9F79E3FF4
S1130E70510580F00C9493060C94DE065F3FE4F376
S1130E80983ED4F3869577956795B795F795E7954A
S1130E909F5FC1F7FE2B880F911D9695879597F953
S1130EA00895EE0FFF1F0590F491E02D0994AEE034
S1130EB0B0E0EDE5F7E00C94180A0D891E8986E090
S1130EC08C831A8309838FEF9FE79E838D83AE0102
S1130ED0475E5F4F6F89788DCE0101960E94790736
S1130EE0EF81F885E00FF11F10822E96E4E00C9458
S1130EF0340AABE0B0E0EFE7F7E00C940A0A6C01C7
S1130F007B018A01FC0117821682838181FFCCC197
S1130F10CE0101963C01F6019381F70193FD859181
S1130F2093FF81917F01882309F4BAC1853239F492
S1130F3093FD859193FF81917F01853229F4B60158
S1130F4090E00E947009E7CF912C212C312CFFE115
S1130F50F315D8F08B3279F038F4803279F083329B
S1130F60A1F4232D20611DC08D3261F0803369F41A
S1130F70232D216016C0832D8260382EE32DE4607A
S1130F803E2E2AC0F32DF8601DC037FC2DC020ED85
S1130F90280F2A3040F08E32B9F436FC81C1232D5B
S1130FA02064322E19C036FE06C08AE0989E200DB9
S1130FB01124922E11C0EAE02E9E200D1124222E1F
S1130FC0F32DF0623F2E08C08C3621F4832D806807
S1130FD0382E02C0883641F4F70193FD859193FFC2
S1130FE081917F018111B3CF982F9F7D95549330C8
S1130FF028F40C5F1F4F9FE399830DC0833631F0B3
S1131000833771F0833509F059C021C0F80180811C
S113101089830E5F1F4F88248394912C530113C03E
S11310202801F2E04F0E511CF801A080B18036FE79
S113103003C0692D70E002C06FEF7FEFC5010E940D
S113104065094C018201F32DFF773F2E16C028015C
S113105022E0420E511CF801A080B18036FE03C08C
S1131060692D70E002C06FEF7FEFC5010E945A093D
S11310704C01F32DF0683F2E820133FC1BC0822DFE
S113108090E088169906B0F4B60180E290E00E94E0
S113109070092A94F4CFF50137FC859137FE8191CC
S11310A05F01B60190E00E94700921102A9421E0AA
S11310B0821A91088114910471F7E8C0843611F002
S11310C0893641F5F80137FE07C06081718182815C
S11310D093810C5F1F4F08C060817181072E000C43
S11310E0880B990B0E5F1F4FF32DFF763F2E97FF52
S11310F009C090958095709561957F4F8F4F9F4F54
S1131100F0683F2E2AE030E0A3010E94AC09882E4B
S1131110861845C0853731F4232D2F7EB22E2AE060
S113112030E025C0932D997FB92E8F36C1F018F485
S1131130883579F0B5C0803719F0883721F0B0C010
S1131140E92FE061BE2EB4FE0DC0FB2DF460BF2E6E
S113115009C034FE0AC0292F2660B22E06C028E03A
S113116030E005C020E130E002C020E132E0F801C7
S1131170B7FE07C060817181828193810C5F1F4F2C
S113118006C06081718180E090E00E5F1F4FA30173
S11311900E94AC09882E8618FB2DFF773F2E36FE61
S11311A00DC0232D2E7FA22E891458F434FE0BC0BB
S11311B032FC09C0832D8E7EA82E05C0B82CA32C2A
S11311C003C0B82C01C0B92CA4FE0FC0FE01E80D69
S11311D0F11D8081803321F49A2D997EA92E09C0B6
S11311E0A2FE06C0B394B39404C08A2D867809F095
S11311F0B394A3FC11C0A0FE06C0B21488F4280C5A
S1131200922C9B180EC0B21460F4B60180E290E0F8
S11312100E947009B394F7CFB21418F42B1802C0CB
S1131220982C212CA4FE10C0B60180E390E00E940B
S11312307009A2FE17C0A1FC03C088E790E002C0B9
S113124088E590E0B6010CC08A2D867859F0A1FE9D
S113125002C08BE201C080E2A7FC8DE2B60190E0FF
S11312600E947009891438F4B60180E390E00E946A
S113127070099A94F7CF8A94F301E80DF11D8081E7
S1131280B60190E00E9470098110F5CF222009F484
S113129042CEB60180E290E00E9470092A94F6CF13
S11312A0F6018681978102C08FEF9FEF2B96E2E1D2
S11312B00C94260AFC010590615070400110D8F787
S11312C0809590958E0F9F1F0895FC01615070408A
S11312D001900110D8F7809590958E0F9F1F089567
S11312E00F931F93CF93DF93FB01238121FD03C051
S11312F08FEF9FEF2CC022FF16C0468157812481B7
S113130035814217530744F4A081B1819D012F5FB9
S11313103F4F318320838C93268137812F5F3F4F4A
S11313203783268314C08B01EC01FB010084F18513
S1131330E02D0995892BE1F6D80116968D919C91A3
S11313401797019617969C938E931697CE01DF916B
S1131350CF911F910F910895FA01AA27283051F1D6
S1131360203181F1E8946F936E7F6E5F7F4F8F4FD2
S11313709F4FAF4FB1E03ED0B4E03CD0670F781F31
S1131380891F9A1FA11D680F791F8A1F911DA11D16
S11313906A0F711D811D911DA11D20D009F468944F
S11313A03F912AE0269F11243019305D3193DEF6F7
S11313B0CF010895462F4770405D4193B3E00FD0AD
S11313C0C9F7F6CF462F4F70405D4A3318F0495D98
S11313D031FD4052419302D0A9F7EACFB4E0A6957B
S11313E09795879577956795BA95C9F7009761059D
S11313F0710508959B01AC010A2E069457954795F3
S113140037952795BA95C9F7620F731F841F951FE7
S1131410A01D08952F923F924F925F926F927F92F8
S11314208F929F92AF92BF92CF92DF92EF92FF92F0
S11314300F931F93CF93DF93CDB7DEB7CA1BDB0B9C
S11314400FB6F894DEBF0FBECDBF09942A88398841
S113145048885F846E847D848C849B84AA84B98448
S1131460C884DF80EE80FD800C811B81AA81B98154
S1131470CE0FD11D0FB6F894DEBF0FBECDBFED0168
S10914800895F894FFCF6B
S113148648554D45444144204143543A2025303281
S1131496692000484F5241204143543A20202530C8
S11314A632693A253032690048554D454441442055
S11314B65345543A20253032692000484F52412082
S11314C64143543A20253032693A253032692000A6
S11314D6484F5241204F4E3A2020253032693A2552
S11314E630326900484F5241204F46463A20253053
S10D14F632693A2530326920000003
S9030000FC
